{
  "_format": "hh-sol-artifact-1",
  "contractName": "CertifiedFinancialRegistry",
  "sourceName": "contracts/CertifiedFinancialRegistry.sol",
  "abi": [
    {
      "inputs": [
        {
          "internalType": "address",
          "name": "_trustedSigner",
          "type": "address"
        }
      ],
      "stateMutability": "nonpayable",
      "type": "constructor"
    },
    {
      "inputs": [],
      "name": "ECDSAInvalidSignature",
      "type": "error"
    },
    {
      "inputs": [
        {
          "internalType": "uint256",
          "name": "length",
          "type": "uint256"
        }
      ],
      "name": "ECDSAInvalidSignatureLength",
      "type": "error"
    },
    {
      "inputs": [
        {
          "internalType": "bytes32",
          "name": "s",
          "type": "bytes32"
        }
      ],
      "name": "ECDSAInvalidSignatureS",
      "type": "error"
    },
    {
      "anonymous": false,
      "inputs": [
        {
          "indexed": true,
          "internalType": "address",
          "name": "user",
          "type": "address"
        },
        {
          "indexed": true,
          "internalType": "bytes32",
          "name": "operationHash",
          "type": "bytes32"
        },
        {
          "indexed": false,
          "internalType": "uint256",
          "name": "timestamp",
          "type": "uint256"
        }
      ],
      "name": "TransactionInserted",
      "type": "event"
    },
    {
      "inputs": [],
      "name": "TRANSACTION_FEE",
      "outputs": [
        {
          "internalType": "uint64",
          "name": "",
          "type": "uint64"
        }
      ],
      "stateMutability": "view",
      "type": "function"
    },
    {
      "inputs": [],
      "name": "getMyTransactions",
      "outputs": [
        {
          "components": [
            {
              "internalType": "bytes32",
              "name": "operationHash",
              "type": "bytes32"
            },
            {
              "internalType": "uint256",
              "name": "timestamp",
              "type": "uint256"
            }
          ],
          "internalType": "struct CertifiedFinancialRegistry.TransactionRecord[]",
          "name": "",
          "type": "tuple[]"
        }
      ],
      "stateMutability": "view",
      "type": "function"
    },
    {
      "inputs": [
        {
          "internalType": "bytes32",
          "name": "operationHash",
          "type": "bytes32"
        },
        {
          "internalType": "bytes",
          "name": "signature",
          "type": "bytes"
        }
      ],
      "name": "insertTransaction",
      "outputs": [],
      "stateMutability": "payable",
      "type": "function"
    },
    {
      "inputs": [],
      "name": "owner",
      "outputs": [
        {
          "internalType": "address payable",
          "name": "",
          "type": "address"
        }
      ],
      "stateMutability": "view",
      "type": "function"
    },
    {
      "inputs": [],
      "name": "trustedSigner",
      "outputs": [
        {
          "internalType": "address",
          "name": "",
          "type": "address"
        }
      ],
      "stateMutability": "view",
      "type": "function"
    }
  ],
  "bytecode": "0x60c060405234801561001057600080fd5b50604051610f99380380610f9983398181016040528101906100329190610103565b8073ffffffffffffffffffffffffffffffffffffffff1660808173ffffffffffffffffffffffffffffffffffffffff16815250503373ffffffffffffffffffffffffffffffffffffffff1660a08173ffffffffffffffffffffffffffffffffffffffff168152505050610130565b600080fd5b600073ffffffffffffffffffffffffffffffffffffffff82169050919050565b60006100d0826100a5565b9050919050565b6100e0816100c5565b81146100eb57600080fd5b50565b6000815190506100fd816100d7565b92915050565b600060208284031215610119576101186100a0565b5b6000610127848285016100ee565b91505092915050565b60805160a051610e36610163600039600081816103d7015261044601526000818161023d01526105240152610e366000f3fe60806040526004361061004a5760003560e01c806363e393da1461004f5780638da5cb5b1461006b57806397e4ca7014610096578063b1b23535146100c1578063f74d5480146100ec575b600080fd5b610069600480360381019061006491906108cb565b610117565b005b34801561007757600080fd5b50610080610444565b60405161008d919061096c565b60405180910390f35b3480156100a257600080fd5b506100ab610468565b6040516100b89190610a8d565b60405180910390f35b3480156100cd57600080fd5b506100d6610517565b6040516100e39190610ad2565b60405180910390f35b3480156100f857600080fd5b50610101610522565b60405161010e9190610b0e565b60405180910390f35b826001600082815260200190815260200160002060009054906101000a900460ff1615610179576040517f08c379a000000000000000000000000000000000000000000000000000000000815260040161017090610b86565b60405180910390fd5b6000801b84036101be576040517f08c379a00000000000000000000000000000000000000000000000000000000081526004016101b590610bf2565b60405180910390fd5b6000846040516020016101d19190610c8a565b60405160208183030381529060405280519060200120905060006102398286868080601f016020809104026020016040519081016040528093929190818152602001838380828437600081840152601f19601f82011690508083019250505050505050610546565b90507f000000000000000000000000000000000000000000000000000000000000000073ffffffffffffffffffffffffffffffffffffffff168173ffffffffffffffffffffffffffffffffffffffff16146102c9576040517f08c379a00000000000000000000000000000000000000000000000000000000081526004016102c090610cfc565b60405180910390fd5b600180600088815260200190815260200160002060006101000a81548160ff0219169083151502179055506000803373ffffffffffffffffffffffffffffffffffffffff1673ffffffffffffffffffffffffffffffffffffffff168152602001908152602001600020604051806040016040528088815260200142815250908060018154018082558091505060019003906000526020600020906002020160009091909190915060008201518160000155602082015181600101555050853373ffffffffffffffffffffffffffffffffffffffff167f0bbf74379e9234b2c8e0e4609f28390fbeabf931518507c15100c60825175f86426040516103cd9190610d2b565b60405180910390a37f000000000000000000000000000000000000000000000000000000000000000073ffffffffffffffffffffffffffffffffffffffff166108fc349081150290604051600060405180830381858888f1935050505015801561043b573d6000803e3d6000fd5b50505050505050565b7f000000000000000000000000000000000000000000000000000000000000000081565b60606000803373ffffffffffffffffffffffffffffffffffffffff1673ffffffffffffffffffffffffffffffffffffffff168152602001908152602001600020805480602002602001604051908101604052809291908181526020016000905b8282101561050e578382906000526020600020906002020160405180604001604052908160008201548152602001600182015481525050815260200190600101906104c8565b50505050905090565b662386f26fc1000081565b7f000000000000000000000000000000000000000000000000000000000000000081565b6000806000806105568686610572565b92509250925061056682826105ce565b82935050505092915050565b600080600060418451036105b75760008060006020870151925060408701519150606087015160001a90506105a988828585610732565b9550955095505050506105c7565b60006002855160001b9250925092505b9250925092565b600060038111156105e2576105e1610d46565b5b8260038111156105f5576105f4610d46565b5b031561072e576001600381111561060f5761060e610d46565b5b82600381111561062257610621610d46565b5b03610659576040517ff645eedf00000000000000000000000000000000000000000000000000000000815260040160405180910390fd5b6002600381111561066d5761066c610d46565b5b8260038111156106805761067f610d46565b5b036106c5578060001c6040517ffce698f70000000000000000000000000000000000000000000000000000000081526004016106bc9190610d2b565b60405180910390fd5b6003808111156106d8576106d7610d46565b5b8260038111156106eb576106ea610d46565b5b0361072d57806040517fd78bce0c0000000000000000000000000000000000000000000000000000000081526004016107249190610d84565b60405180910390fd5b5b5050565b60008060007f7fffffffffffffffffffffffffffffff5d576e7357a4501ddfe92f46681b20a08460001c111561077257600060038592509250925061081c565b6000600188888888604051600081526020016040526040516107979493929190610dbb565b6020604051602081039080840390855afa1580156107b9573d6000803e3d6000fd5b505050602060405103519050600073ffffffffffffffffffffffffffffffffffffffff168173ffffffffffffffffffffffffffffffffffffffff160361080d57600060016000801b9350935093505061081c565b8060008060001b935093509350505b9450945094915050565b600080fd5b600080fd5b6000819050919050565b61084381610830565b811461084e57600080fd5b50565b6000813590506108608161083a565b92915050565b600080fd5b600080fd5b600080fd5b60008083601f84011261088b5761088a610866565b5b8235905067ffffffffffffffff8111156108a8576108a761086b565b5b6020830191508360018202830111156108c4576108c3610870565b5b9250929050565b6000806000604084860312156108e4576108e3610826565b5b60006108f286828701610851565b935050602084013567ffffffffffffffff8111156109135761091261082b565b5b61091f86828701610875565b92509250509250925092565b600073ffffffffffffffffffffffffffffffffffffffff82169050919050565b60006109568261092b565b9050919050565b6109668161094b565b82525050565b6000602082019050610981600083018461095d565b92915050565b600081519050919050565b600082825260208201905092915050565b6000819050602082019050919050565b6109bc81610830565b82525050565b6000819050919050565b6109d5816109c2565b82525050565b6040820160008201516109f160008501826109b3565b506020820151610a0460208501826109cc565b50505050565b6000610a1683836109db565b60408301905092915050565b6000602082019050919050565b6000610a3a82610987565b610a448185610992565b9350610a4f836109a3565b8060005b83811015610a80578151610a678882610a0a565b9750610a7283610a22565b925050600181019050610a53565b5085935050505092915050565b60006020820190508181036000830152610aa78184610a2f565b905092915050565b600067ffffffffffffffff82169050919050565b610acc81610aaf565b82525050565b6000602082019050610ae76000830184610ac3565b92915050565b6000610af88261092b565b9050919050565b610b0881610aed565b82525050565b6000602082019050610b236000830184610aff565b92915050565b600082825260208201905092915050565b7f4f7065726174696f6e20616c7265616479207573656400000000000000000000600082015250565b6000610b70601683610b29565b9150610b7b82610b3a565b602082019050919050565b60006020820190508181036000830152610b9f81610b63565b9050919050565b7f496e76616c6964206f7065726174696f6e206861736800000000000000000000600082015250565b6000610bdc601683610b29565b9150610be782610ba6565b602082019050919050565b60006020820190508181036000830152610c0b81610bcf565b9050919050565b600081905092915050565b7f19457468657265756d205369676e6564204d6573736167653a0a333200000000600082015250565b6000610c53601c83610c12565b9150610c5e82610c1d565b601c82019050919050565b6000819050919050565b610c84610c7f82610830565b610c69565b82525050565b6000610c9582610c46565b9150610ca18284610c73565b60208201915081905092915050565b7f496e76616c6964207369676e6174757265000000000000000000000000000000600082015250565b6000610ce6601183610b29565b9150610cf182610cb0565b602082019050919050565b60006020820190508181036000830152610d1581610cd9565b9050919050565b610d25816109c2565b82525050565b6000602082019050610d406000830184610d1c565b92915050565b7f4e487b7100000000000000000000000000000000000000000000000000000000600052602160045260246000fd5b610d7e81610830565b82525050565b6000602082019050610d996000830184610d75565b92915050565b600060ff82169050919050565b610db581610d9f565b82525050565b6000608082019050610dd06000830187610d75565b610ddd6020830186610dac565b610dea6040830185610d75565b610df76060830184610d75565b9594505050505056fea26469706673582212209368c07937761d7da74d790120e536e70f57695060997bf2bd9ea8b882d2bdd864736f6c634300081b0033",
  "linkReferences": {},
  "deployedLinkReferences": {}
}